{
  "contractName": "CharitableCauseFactory",
  "abi": [
    {
      "anonymous": false,
      "inputs": [
        {
          "indexed": false,
          "internalType": "address",
          "name": "causeAddress",
          "type": "address"
        }
      ],
      "name": "causeCreated",
      "type": "event"
    },
    {
      "inputs": [
        {
          "internalType": "uint256",
          "name": "",
          "type": "uint256"
        }
      ],
      "name": "deployedCharitableCauses",
      "outputs": [
        {
          "internalType": "contract CharitableCause",
          "name": "",
          "type": "address"
        }
      ],
      "stateMutability": "view",
      "type": "function",
      "constant": true
    },
    {
      "inputs": [
        {
          "internalType": "uint256",
          "name": "minimum",
          "type": "uint256"
        },
        {
          "internalType": "string",
          "name": "title",
          "type": "string"
        },
        {
          "internalType": "string",
          "name": "details",
          "type": "string"
        },
        {
          "internalType": "string",
          "name": "location",
          "type": "string"
        },
        {
          "internalType": "string",
          "name": "causeType",
          "type": "string"
        }
      ],
      "name": "createCharitableCause",
      "outputs": [
        {
          "internalType": "address",
          "name": "",
          "type": "address"
        }
      ],
      "stateMutability": "nonpayable",
      "type": "function"
    },
    {
      "inputs": [],
      "name": "getDeployedCharitableCauses",
      "outputs": [
        {
          "internalType": "contract CharitableCause[]",
          "name": "",
          "type": "address[]"
        }
      ],
      "stateMutability": "view",
      "type": "function",
      "constant": true
    }
  ],
  "bytecode": "0x608060405234801561001057600080fd5b50612934806100206000396000f3fe60806040523480156200001157600080fd5b5060043610620000465760003560e01c80633411df6e146200004b5780637a54a8e61462000081578063e15e943214620000a3575b600080fd5b62000069600480360381019062000063919062000456565b620000d9565b6040516200007891906200059f565b60405180910390f35b6200008b620001c7565b6040516200009a9190620006e4565b60405180910390f35b620000c16004803603810190620000bb919062000708565b62000257565b604051620000d091906200074b565b60405180910390f35b600080863387878787604051620000f09062000297565b62000101969594939291906200080c565b604051809103906000f0801580156200011e573d6000803e3d6000fd5b5090506000819080600181540180825580915050600190039060005260206000200160009091909190916101000a81548173ffffffffffffffffffffffffffffffffffffffff021916908373ffffffffffffffffffffffffffffffffffffffff1602179055507fc9555334e3e1de35e4104c24c58264cc2790dc066f0000c15a86bb84a33fe2db81604051620001b591906200059f565b60405180910390a15095945050505050565b606060008054806020026020016040519081016040528092919081815260200182805480156200024d57602002820191906000526020600020905b8160009054906101000a900473ffffffffffffffffffffffffffffffffffffffff1673ffffffffffffffffffffffffffffffffffffffff168152602001906001019080831162000202575b5050505050905090565b600081815481106200026857600080fd5b906000526020600020016000915054906101000a900473ffffffffffffffffffffffffffffffffffffffff1681565b612069806200089683390190565b6000604051905090565b600080fd5b600080fd5b6000819050919050565b620002ce81620002b9565b8114620002da57600080fd5b50565b600081359050620002ee81620002c3565b92915050565b600080fd5b600080fd5b6000601f19601f8301169050919050565b7f4e487b7100000000000000000000000000000000000000000000000000000000600052604160045260246000fd5b6200034982620002fe565b810181811067ffffffffffffffff821117156200036b576200036a6200030f565b5b80604052505050565b600062000380620002a5565b90506200038e82826200033e565b919050565b600067ffffffffffffffff821115620003b157620003b06200030f565b5b620003bc82620002fe565b9050602081019050919050565b82818337600083830152505050565b6000620003ef620003e98462000393565b62000374565b9050828152602081018484840111156200040e576200040d620002f9565b5b6200041b848285620003c9565b509392505050565b600082601f8301126200043b576200043a620002f4565b5b81356200044d848260208601620003d8565b91505092915050565b600080600080600060a08688031215620004755762000474620002af565b5b60006200048588828901620002dd565b955050602086013567ffffffffffffffff811115620004a957620004a8620002b4565b5b620004b78882890162000423565b945050604086013567ffffffffffffffff811115620004db57620004da620002b4565b5b620004e98882890162000423565b935050606086013567ffffffffffffffff8111156200050d576200050c620002b4565b5b6200051b8882890162000423565b925050608086013567ffffffffffffffff8111156200053f576200053e620002b4565b5b6200054d8882890162000423565b9150509295509295909350565b600073ffffffffffffffffffffffffffffffffffffffff82169050919050565b600062000587826200055a565b9050919050565b62000599816200057a565b82525050565b6000602082019050620005b660008301846200058e565b92915050565b600081519050919050565b600082825260208201905092915050565b6000819050602082019050919050565b6000819050919050565b6000620006136200060d62000607846200055a565b620005e8565b6200055a565b9050919050565b60006200062782620005f2565b9050919050565b60006200063b826200061a565b9050919050565b6200064d816200062e565b82525050565b600062000661838362000642565b60208301905092915050565b6000602082019050919050565b60006200068782620005bc565b620006938185620005c7565b9350620006a083620005d8565b8060005b83811015620006d7578151620006bb888262000653565b9750620006c8836200066d565b925050600181019050620006a4565b5085935050505092915050565b600060208201905081810360008301526200070081846200067a565b905092915050565b600060208284031215620007215762000720620002af565b5b60006200073184828501620002dd565b91505092915050565b62000745816200062e565b82525050565b60006020820190506200076260008301846200073a565b92915050565b6200077381620002b9565b82525050565b600081519050919050565b600082825260208201905092915050565b60005b83811015620007b557808201518184015260208101905062000798565b83811115620007c5576000848401525b50505050565b6000620007d88262000779565b620007e4818562000784565b9350620007f681856020860162000795565b6200080181620002fe565b840191505092915050565b600060c08201905062000823600083018962000768565b6200083260208301886200058e565b8181036040830152620008468187620007cb565b905081810360608301526200085c8186620007cb565b90508181036080830152620008728185620007cb565b905081810360a0830152620008888184620007cb565b905097965050505050505056fe60806040523480156200001157600080fd5b5060405162002069380380620020698339818101604052810190620000379190620003dc565b84600460006101000a81548173ffffffffffffffffffffffffffffffffffffffff021916908373ffffffffffffffffffffffffffffffffffffffff16021790555085600581905550836000908051906020019062000097929190620000ef565b508160029080519060200190620000b0929190620000ef565b508060039080519060200190620000c9929190620000ef565b508260019080519060200190620000e2929190620000ef565b5050505050505062000558565b828054620000fd9062000523565b90600052602060002090601f0160209004810192826200012157600085556200016d565b82601f106200013c57805160ff19168380011785556200016d565b828001600101855582156200016d579182015b828111156200016c5782518255916020019190600101906200014f565b5b5090506200017c919062000180565b5090565b5b808211156200019b57600081600090555060010162000181565b5090565b6000604051905090565b600080fd5b600080fd5b6000819050919050565b620001c881620001b3565b8114620001d457600080fd5b50565b600081519050620001e881620001bd565b92915050565b600073ffffffffffffffffffffffffffffffffffffffff82169050919050565b60006200021b82620001ee565b9050919050565b6200022d816200020e565b81146200023957600080fd5b50565b6000815190506200024d8162000222565b92915050565b600080fd5b600080fd5b6000601f19601f8301169050919050565b7f4e487b7100000000000000000000000000000000000000000000000000000000600052604160045260246000fd5b620002a8826200025d565b810181811067ffffffffffffffff82111715620002ca57620002c96200026e565b5b80604052505050565b6000620002df6200019f565b9050620002ed82826200029d565b919050565b600067ffffffffffffffff82111562000310576200030f6200026e565b5b6200031b826200025d565b9050602081019050919050565b60005b83811015620003485780820151818401526020810190506200032b565b8381111562000358576000848401525b50505050565b6000620003756200036f84620002f2565b620002d3565b90508281526020810184848401111562000394576200039362000258565b5b620003a184828562000328565b509392505050565b600082601f830112620003c157620003c062000253565b5b8151620003d38482602086016200035e565b91505092915050565b60008060008060008060c08789031215620003fc57620003fb620001a9565b5b60006200040c89828a01620001d7565b96505060206200041f89828a016200023c565b955050604087015167ffffffffffffffff811115620004435762000442620001ae565b5b6200045189828a01620003a9565b945050606087015167ffffffffffffffff811115620004755762000474620001ae565b5b6200048389828a01620003a9565b935050608087015167ffffffffffffffff811115620004a757620004a6620001ae565b5b620004b589828a01620003a9565b92505060a087015167ffffffffffffffff811115620004d957620004d8620001ae565b5b620004e789828a01620003a9565b9150509295509295509295565b7f4e487b7100000000000000000000000000000000000000000000000000000000600052602260045260246000fd5b600060028204905060018216806200053c57607f821691505b602082108103620005525762000551620004f4565b5b50919050565b611b0180620005686000396000f3fe6080604052600436106101095760003560e01c8063565974d3116100955780638a9cfd55116100645780638a9cfd5514610353578063937e09b11461037c5780639fb42b1f146103a7578063d7bb99ba146103d2578063d7d1bbdb146103dc57610109565b8063565974d3146102a75780635e7fef9e146102d2578063781952a8146102fd57806382fde0931461032857610109565b80633410452a116100dc5780633410452a146101c85780634051ddac146101f3578063481c6a75146102265780634a79d50c14610251578063516f279e1461027c57610109565b8063034410061461010e5780630a14439114610137578063157e3945146101745780631a4b49f11461019f575b600080fd5b34801561011a57600080fd5b5061013560048036038101906101309190611131565b610405565b005b34801561014357600080fd5b5061015e600480360381019061015991906111bc565b6105e2565b60405161016b9190611204565b60405180910390f35b34801561018057600080fd5b50610189610602565b604051610196919061122e565b60405180910390f35b3480156101ab57600080fd5b506101c660048036038101906101c191906113cd565b610608565b005b3480156101d457600080fd5b506101dd610780565b6040516101ea919061122e565b60405180910390f35b3480156101ff57600080fd5b5061020861078a565b60405161021d999897969594939291906114d3565b60405180910390f35b34801561023257600080fd5b5061023b610a1a565b604051610248919061157c565b60405180910390f35b34801561025d57600080fd5b50610266610a40565b6040516102739190611597565b60405180910390f35b34801561028857600080fd5b50610291610ace565b60405161029e9190611597565b60405180910390f35b3480156102b357600080fd5b506102bc610b5c565b6040516102c99190611597565b60405180910390f35b3480156102de57600080fd5b506102e7610bea565b6040516102f49190611597565b60405180910390f35b34801561030957600080fd5b50610312610c78565b60405161031f919061122e565b60405180910390f35b34801561033457600080fd5b5061033d610c82565b60405161034a919061122e565b60405180910390f35b34801561035f57600080fd5b5061037a600480360381019061037591906115b9565b610c88565b005b34801561038857600080fd5b50610391610dd7565b60405161039e919061122e565b60405180910390f35b3480156103b357600080fd5b506103bc610ddd565b6040516103c9919061122e565b60405180910390f35b6103da610de3565b005b3480156103e857600080fd5b5061040360048036038101906103fe9190611131565b610e9a565b005b600460009054906101000a900473ffffffffffffffffffffffffffffffffffffffff1673ffffffffffffffffffffffffffffffffffffffff163373ffffffffffffffffffffffffffffffffffffffff1614610495576040517f08c379a000000000000000000000000000000000000000000000000000000000815260040161048c9061169a565b60405180910390fd5b6000600a6000838152602001908152602001600020905060026007546104bb9190611718565b816003015411610500576040517f08c379a00000000000000000000000000000000000000000000000000000000081526004016104f7906117bb565b60405180910390fd5b8060020160149054906101000a900460ff1615610552576040517f08c379a00000000000000000000000000000000000000000000000000000000081526004016105499061184d565b60405180910390fd5b8060020160009054906101000a900473ffffffffffffffffffffffffffffffffffffffff1673ffffffffffffffffffffffffffffffffffffffff166108fc82600101549081150290604051600060405180830381858888f193505050501580156105c0573d6000803e3d6000fd5b5060018160020160146101000a81548160ff0219169083151502179055505050565b60066020528060005260406000206000915054906101000a900460ff1681565b60095481565b600460009054906101000a900473ffffffffffffffffffffffffffffffffffffffff1673ffffffffffffffffffffffffffffffffffffffff163373ffffffffffffffffffffffffffffffffffffffff1614610698576040517f08c379a000000000000000000000000000000000000000000000000000000000815260040161068f9061169a565b60405180910390fd5b8173ffffffffffffffffffffffffffffffffffffffff166108fc849081150290604051600060405180830381858888f193505050501580156106de573d6000803e3d6000fd5b506000600b6000600960008154809291906106f89061186d565b919050558152602001908152602001600020905081816000019080519060200190610724929190611044565b50838160010181905550428160030181905550828160020160006101000a81548173ffffffffffffffffffffffffffffffffffffffff021916908373ffffffffffffffffffffffffffffffffffffffff16021790555050505050565b6000600854905090565b600080600080600060608060608060055447600854600754600460009054906101000a900473ffffffffffffffffffffffffffffffffffffffff1660006001600260038380546107d9906118e4565b80601f0160208091040260200160405190810160405280929190818152602001828054610805906118e4565b80156108525780601f1061082757610100808354040283529160200191610852565b820191906000526020600020905b81548152906001019060200180831161083557829003601f168201915b50505050509350828054610865906118e4565b80601f0160208091040260200160405190810160405280929190818152602001828054610891906118e4565b80156108de5780601f106108b3576101008083540402835291602001916108de565b820191906000526020600020905b8154815290600101906020018083116108c157829003601f168201915b505050505092508180546108f1906118e4565b80601f016020809104026020016040519081016040528092919081815260200182805461091d906118e4565b801561096a5780601f1061093f5761010080835404028352916020019161096a565b820191906000526020600020905b81548152906001019060200180831161094d57829003601f168201915b5050505050915080805461097d906118e4565b80601f01602080910402602001604051908101604052809291908181526020018280546109a9906118e4565b80156109f65780601f106109cb576101008083540402835291602001916109f6565b820191906000526020600020905b8154815290600101906020018083116109d957829003601f168201915b50505050509050985098509850985098509850985098509850909192939495969798565b600460009054906101000a900473ffffffffffffffffffffffffffffffffffffffff1681565b60008054610a4d906118e4565b80601f0160208091040260200160405190810160405280929190818152602001828054610a79906118e4565b8015610ac65780601f10610a9b57610100808354040283529160200191610ac6565b820191906000526020600020905b815481529060010190602001808311610aa957829003601f168201915b505050505081565b60028054610adb906118e4565b80601f0160208091040260200160405190810160405280929190818152602001828054610b07906118e4565b8015610b545780601f10610b2957610100808354040283529160200191610b54565b820191906000526020600020905b815481529060010190602001808311610b3757829003601f168201915b505050505081565b60018054610b69906118e4565b80601f0160208091040260200160405190810160405280929190818152602001828054610b95906118e4565b8015610be25780601f10610bb757610100808354040283529160200191610be2565b820191906000526020600020905b815481529060010190602001808311610bc557829003601f168201915b505050505081565b60038054610bf7906118e4565b80601f0160208091040260200160405190810160405280929190818152602001828054610c23906118e4565b8015610c705780601f10610c4557610100808354040283529160200191610c70565b820191906000526020600020905b815481529060010190602001808311610c5357829003601f168201915b505050505081565b6000600954905090565b60075481565b600460009054906101000a900473ffffffffffffffffffffffffffffffffffffffff1673ffffffffffffffffffffffffffffffffffffffff163373ffffffffffffffffffffffffffffffffffffffff1614610d18576040517f08c379a0000000000000000000000000000000000000000000000000000000008152600401610d0f9061169a565b60405180910390fd5b6000600a600060086000815480929190610d319061186d565b919050558152602001908152602001600020905083816000019080519060200190610d5d929190611044565b50828160010181905550818160020160006101000a81548173ffffffffffffffffffffffffffffffffffffffff021916908373ffffffffffffffffffffffffffffffffffffffff16021790555060008160020160146101000a81548160ff0219169083151502179055506000816003018190555050505050565b60055481565b60085481565b600554341015610e28576040517f08c379a0000000000000000000000000000000000000000000000000000000008152600401610e1f90611987565b60405180910390fd5b6001600660003373ffffffffffffffffffffffffffffffffffffffff1673ffffffffffffffffffffffffffffffffffffffff16815260200190815260200160002060006101000a81548160ff02191690831515021790555060076000815480929190610e939061186d565b9190505550565b6000600a60008381526020019081526020016000209050600660003373ffffffffffffffffffffffffffffffffffffffff1673ffffffffffffffffffffffffffffffffffffffff16815260200190815260200160002060009054906101000a900460ff16610f3d576040517f08c379a0000000000000000000000000000000000000000000000000000000008152600401610f3490611a19565b60405180910390fd5b8060040160003373ffffffffffffffffffffffffffffffffffffffff1673ffffffffffffffffffffffffffffffffffffffff16815260200190815260200160002060009054906101000a900460ff1615610fcc576040517f08c379a0000000000000000000000000000000000000000000000000000000008152600401610fc390611aab565b60405180910390fd5b60018160040160003373ffffffffffffffffffffffffffffffffffffffff1673ffffffffffffffffffffffffffffffffffffffff16815260200190815260200160002060006101000a81548160ff02191690831515021790555080600301600081548092919061103b9061186d565b91905055505050565b828054611050906118e4565b90600052602060002090601f01602090048101928261107257600085556110b9565b82601f1061108b57805160ff19168380011785556110b9565b828001600101855582156110b9579182015b828111156110b857825182559160200191906001019061109d565b5b5090506110c691906110ca565b5090565b5b808211156110e35760008160009055506001016110cb565b5090565b6000604051905090565b600080fd5b600080fd5b6000819050919050565b61110e816110fb565b811461111957600080fd5b50565b60008135905061112b81611105565b92915050565b600060208284031215611147576111466110f1565b5b60006111558482850161111c565b91505092915050565b600073ffffffffffffffffffffffffffffffffffffffff82169050919050565b60006111898261115e565b9050919050565b6111998161117e565b81146111a457600080fd5b50565b6000813590506111b681611190565b92915050565b6000602082840312156111d2576111d16110f1565b5b60006111e0848285016111a7565b91505092915050565b60008115159050919050565b6111fe816111e9565b82525050565b600060208201905061121960008301846111f5565b92915050565b611228816110fb565b82525050565b6000602082019050611243600083018461121f565b92915050565b60006112548261115e565b9050919050565b61126481611249565b811461126f57600080fd5b50565b6000813590506112818161125b565b92915050565b600080fd5b600080fd5b6000601f19601f8301169050919050565b7f4e487b7100000000000000000000000000000000000000000000000000000000600052604160045260246000fd5b6112da82611291565b810181811067ffffffffffffffff821117156112f9576112f86112a2565b5b80604052505050565b600061130c6110e7565b905061131882826112d1565b919050565b600067ffffffffffffffff821115611338576113376112a2565b5b61134182611291565b9050602081019050919050565b82818337600083830152505050565b600061137061136b8461131d565b611302565b90508281526020810184848401111561138c5761138b61128c565b5b61139784828561134e565b509392505050565b600082601f8301126113b4576113b3611287565b5b81356113c484826020860161135d565b91505092915050565b6000806000606084860312156113e6576113e56110f1565b5b60006113f48682870161111c565b935050602061140586828701611272565b925050604084013567ffffffffffffffff811115611426576114256110f6565b5b6114328682870161139f565b9150509250925092565b6114458161117e565b82525050565b600081519050919050565b600082825260208201905092915050565b60005b8381101561148557808201518184015260208101905061146a565b83811115611494576000848401525b50505050565b60006114a58261144b565b6114af8185611456565b93506114bf818560208601611467565b6114c881611291565b840191505092915050565b6000610120820190506114e9600083018c61121f565b6114f6602083018b61121f565b611503604083018a61121f565b611510606083018961121f565b61151d608083018861143c565b81810360a083015261152f818761149a565b905081810360c0830152611543818661149a565b905081810360e0830152611557818561149a565b905081810361010083015261156c818461149a565b90509a9950505050505050505050565b6000602082019050611591600083018461143c565b92915050565b600060208201905081810360008301526115b1818461149a565b905092915050565b6000806000606084860312156115d2576115d16110f1565b5b600084013567ffffffffffffffff8111156115f0576115ef6110f6565b5b6115fc8682870161139f565b935050602061160d8682870161111c565b925050604061161e86828701611272565b9150509250925092565b7f4f6e6c79207468652043686172697461626c654361757365206d616e6167657260008201527f2063616e2063616c6c20746869732066756e6374696f6e2e0000000000000000602082015250565b6000611684603883611456565b915061168f82611628565b604082019050919050565b600060208201905081810360008301526116b381611677565b9050919050565b7f4e487b7100000000000000000000000000000000000000000000000000000000600052601260045260246000fd5b7f4e487b7100000000000000000000000000000000000000000000000000000000600052601160045260246000fd5b6000611723826110fb565b915061172e836110fb565b92508261173e5761173d6116ba565b5b828204905092915050565b7f546869732072657175657374206e65656473206d6f726520617070726f76616c60008201527f73206265666f72652069742063616e2062652066696e616c697a656400000000602082015250565b60006117a5603c83611456565b91506117b082611749565b604082019050919050565b600060208201905081810360008301526117d481611798565b9050919050565b7f5468697320726571756573742068617320616c7265616479206265656e20666960008201527f6e616c697a656400000000000000000000000000000000000000000000000000602082015250565b6000611837602783611456565b9150611842826117db565b604082019050919050565b600060208201905081810360008301526118668161182a565b9050919050565b6000611878826110fb565b91507fffffffffffffffffffffffffffffffffffffffffffffffffffffffffffffffff82036118aa576118a96116e9565b5b600182019050919050565b7f4e487b7100000000000000000000000000000000000000000000000000000000600052602260045260246000fd5b600060028204905060018216806118fc57607f821691505b60208210810361190f5761190e6118b5565b5b50919050565b7f41206d696e756d756d20636f6e747269627574696f6e2069732072657175697260008201527f65642e0000000000000000000000000000000000000000000000000000000000602082015250565b6000611971602383611456565b915061197c82611915565b604082019050919050565b600060208201905081810360008301526119a081611964565b9050919050565b7f4f6e6c7920636f6e7472696275746f72732063616e20617070726f766520612060008201527f7370656369666963207061796d656e7420726571756573740000000000000000602082015250565b6000611a03603883611456565b9150611a0e826119a7565b604082019050919050565b60006020820190508181036000830152611a32816119f6565b9050919050565b7f596f75206861766520616c726561647920766f74656420746f20617070726f7660008201527f6520746869732072657175657374000000000000000000000000000000000000602082015250565b6000611a95602e83611456565b9150611aa082611a39565b604082019050919050565b60006020820190508181036000830152611ac481611a88565b905091905056fea26469706673582212209e1052d8b4c009d8c7c6eab6ce71848c49fcf0f452192197e57662fa31de68bc64736f6c634300080d0033a2646970667358221220914f634e9d360248f847c40ce7aec2582e73c9a4c9c74f72d63a084a425dfa2c64736f6c634300080d0033",
  "immutableReferences": {},
  "source": "// SPDX-License-Identifier: MIT\n//pragma solidity >=0.5.0 <0.7.0;\npragma solidity >=0.4.22 <0.9.0;\n\ncontract CharitableCauseFactory {\n    CharitableCause[] public deployedCharitableCauses;\n    // uint256 public numCharitableCause;\n    // mapping (uint256 => CharitableCause) deployedCharitableCauses;\n    event causeCreated(address causeAddress);\n\n    function createCharitableCause(uint256 minimum, string memory title, string memory details, string memory location, string memory causeType) public returns (address){\n        CharitableCause newCharitableCause = new CharitableCause(\n            minimum,\n            msg.sender,\n            title,\n            details,\n            location,\n            causeType\n        );\n        deployedCharitableCauses.push(newCharitableCause);\n        emit causeCreated(address(newCharitableCause));\n        //return address(newCharitableCause);\n        // CharitableCause storage C = deployedCharitableCauses[numCharitableCause++];\n        // C.minimumContribution = minimum;\n        // C.manager = msg.sender;\n        // C.title = title;\n        // C.details = details;\n        // C.location = location;\n        // C.causeType = causeType;\n    }\n\n    function getDeployedCharitableCauses()\n        public\n        view\n        returns (CharitableCause[] memory)\n    {\n        return deployedCharitableCauses;\n    }\n}\n\ncontract CharitableCause {\n\n    string public title;\n    string public details;\n    string public location;\n    string public causeType;\n    address public manager;\n    uint256 public minimumContribution;\n    mapping(address => bool) public approvers;\n    uint256 public approversCount;\n    \n\n    uint256 public numRequests;\n    uint256 public numWithdrawals;\n    mapping (uint256 => Request) requests;\n    mapping (uint256 => Withdrawal) withdrawals;\n    //Request[] public requests;\n    //Withdrawal[] public withdrawals;\n\n    struct Request {\n        string description;\n        uint256 value;\n        address payable recipient;\n        bool complete;\n        uint256 approvalCount;\n        mapping(address => bool) approvals;\n    }\n\n    struct Withdrawal {\n        string description;\n        uint256 amount;\n        address payable recieverAcc;\n        uint256 timestamp;\n    }\n\n    constructor(uint256 minimum, address creator, string memory ttl, string memory des, string memory loctn, string memory cause) public {\n        manager = creator;\n        minimumContribution = minimum;\n        title = ttl;\n        location = loctn;\n        causeType = cause;\n        details = des;\n    }\n\n    function contribute() public payable {\n        require(\n            msg.value >= minimumContribution,\n            \"A minumum contribution is required.\"\n        );\n        approvers[msg.sender] = true;\n        approversCount++;\n    }\n\n    function createRequest(string memory description, uint256 value, address payable recipient) public onlyManager {\n        // Request memory newRequest = Request({\n        //     description: description,\n        //     value: value,\n        //     recipient: recipient,\n        //     complete: false,\n        //     approvalCount: 0\n        // });\n        // requests.push(newRequest);\n        Request storage r = requests[numRequests++];\n        r.description =description;\n        r.value = value;\n        r.recipient = recipient;\n        r.complete = false;\n        r.approvalCount = 0;\n    }\n\n    function approveRequest(uint256 index) public {\n        Request storage request = requests[index];\n        require(\n            approvers[msg.sender],\n            \"Only contributors can approve a specific payment request\"\n        );\n        require(\n            !request.approvals[msg.sender],\n            \"You have already voted to approve this request\"\n        );\n\n        request.approvals[msg.sender] = true;\n        request.approvalCount++;\n    }\n\n    function finalizeRequest(uint256 index) public onlyManager {\n        Request storage request = requests[index];\n        require(\n            request.approvalCount > (approversCount / 2),\n            \"This request needs more approvals before it can be finalized\"\n        );\n        require(!(request.complete), \"This request has already been finalized\");\n\n        request.recipient.transfer(request.value);\n        request.complete = true;\n    }\n\n    function getSummary()\n        public\n        view\n        returns (\n            uint256,\n            uint256,\n            uint256,\n            uint256,\n            address,\n            string memory,\n            string memory,\n            string memory,\n            string memory\n        )\n    {\n        return (\n            minimumContribution,\n            address(this).balance,\n            //requests.length,\n            numRequests,\n            approversCount,\n            manager,\n            title,\n            details,\n            location,\n            causeType\n        );\n    }\n\n    function getRequestsCount() public view returns (uint256) {\n        return numRequests;\n    }\n\n    function makeWithdrawal(uint256 amt, address payable recieverAcc, string memory description) public onlyManager {\n        recieverAcc.transfer(amt);\n        Withdrawal storage w = withdrawals[numWithdrawals++];\n        w.description = description;\n        w.amount = amt;\n        w.timestamp = block.timestamp;\n        w.recieverAcc = recieverAcc;\n    }\n\n     function getWithdrawalCount()\n        public\n        view\n        returns (uint256)\n    {\n        //return withdrawals.length;\n        return numWithdrawals;\n    }\n\n    modifier onlyManager() {\n        require(\n            msg.sender == manager,\n            \"Only the CharitableCause manager can call this function.\"\n        );\n        _;\n    }\n}\n",
  "sourcePath": "D:\\Study\\\\6883_Blockchain\\Smart_Contract\\Magnanimity-main\\contracts\\CharitableCause.sol",
  "compiler": {
    "name": "solc",
    "version": "0.8.13+commit.abaa5c0e.Emscripten.clang"
  },
  "schemaVersion": "3.4.7",
  "updatedAt": "2022-05-08T22:59:56.089Z",
  "networkType": "ethereum",
  "devdoc": {
    "kind": "dev",
    "methods": {},
    "version": 1
  },
  "userdoc": {
    "kind": "user",
    "methods": {},
    "version": 1
  }
}